:020000001728BF
:100008007E14803120007F08F3008B1A0B1D0E2808
:10001800722412288B190B1C12281624730820002E
:10002800FF007E1009001828AE3084008330850058
:10003800413086000030870014305424F601F7015F
:10004800F801F901203084000030850021305A245D
:100058007E102000D92A200020082104031D080052
:100068009628FA30D3000030D400A02801301F248D
:10007800023027240430272408302724A028013000
:10008800272402301F240430272408302724A028DE
:10009800013027240230272404301F240830272465
:1000A800A0280130272402302724043027240830D0
:1000B8001F24A028013027240230272404301F24BD
:1000C80008302724A0280130272402301F240430B8
:1000D800272408302724A02801301F240230272491
:1000E8000430272408302724A02801301F24023098
:1000F8001F2404301F2408301F24A028013027247F
:10010800023027240430272408302724A02801306F
:1001180027240230272404302724083027242000ED
:10012800B001A028300884000B300402031894287A
:100138008331EB30040782002000300803190800DF
:1001480007303006031DD0282F24003A0319D02881
:10015800003020005402043003195302031CCE2837
:100168006430D9000030DA005408D6005308D500AE
:100178005030D7000030D800922320005608DC0009
:100188005508DB00392320005A08D4005908D30049
:100198000230FA280830FF28093020003006031DF5
:1001A80007292F24003A0319072900302000540298
:1001B8000B3003195302031CFE286430D9000030A9
:1001C800DA005408D6005308D5005F30D700003055
:1001D800D800922320005608DC005508DB0039239C
:1001E80020005A08D4005908D3000830E1006108FB
:1001F800B0000C290130E1006108B000FA30D300EA
:100208000030D4000C2901302000E1006108B0075B
:100218005408A1005308A000080020002208230465
:10022800031D08007829FA30D1000030D200822955
:1002380080301F24403027242030272410302724E2
:1002480082298030272440301F2420302724103072
:1002580027248229803027244030272420301F2457
:10026800103027248229803027244030272420304A
:10027800272410301F248229803027244030272447
:1002880020301F2410302724822980302724403032
:100298001F242030272410302724822980301F244F
:1002A800403027242030272410302724822980300A
:1002B8001F2440301F2420301F2410301F2482297F
:1002C800803027244030272420302724103027244A
:1002D80082298030272440302724203027241030DA
:1002E80027242000B1018229310884000B30040240
:1002F8000318762984310030040782002000310871
:100308000319080007303106031DB2293724003AC3
:100318000319B22900302000520204300319510297
:10032800031CB0296430D9000030DA005208D60026
:100338005108D5005030D7000030D8009223200053
:100348005608DC005508DB00392320005A08D20083
:100358005908D1000230DC290830E1290930200091
:100368003106031DE9293724003A0319E929003029
:10037800200052020B3003195102031CE02964309B
:10038800D9000030DA005208D6005108D5005F3095
:10039800D7000030D800922320005608DC0055080A
:1003A800DB00392320005A08D2005908D100083050
:1003B800E1006108B100EE290130E1006108B100F7
:1003C800FA30D1000030D200EE2901302000E100DF
:1003D8006108B1075208A3005108A20008004D2483
:1003E800003A0319052A7703031DFF297908031D1D
:1003F8001D2A02300D2A0230770603191D2A013002
:10040800162A03307706031D112A7908031D1D2AB1
:100418000430F4007408F7001D2A04307706031925
:100428001D2A0330F4007408F7003230F400740811
:10043800F9004624003A03192F2A7603031D292AB6
:100448007808031D472A0230372A02307606031936
:10045800472A0130402A03307606031D3B2A7808D4
:10046800031D472A0430F4007408F600472A0430B4
:1004780076060319472A0330F4007408F600323070
:10048800F4007408F8003724003A0319562A2000AB
:100498003D08031D532A0130F4007408B100BD0162
:1004A800BD0A582A2000BD012F24003A0319672AE3
:1004B80020003C08031D642A0130F4007408B000D1
:1004C800BC01BC0A692A2000BC01F501F50A4D24CB
:1004D800003A031D742A4624003A031D742AF501C4
:1004E80075080800CC3021008C0020008C010130F8
:1004F800F000400A802AF035890B7F2A7008F10045
:100508007108F20072083F050319982A4008493E0D
:1005180086008701010821008C0020004008413E28
:100528008600870101088C000130F0007008C007C0
:1005380008304006031D08000130B8070030B93DF7
:100548000030BA3D0030BB3DF2010830720203189A
:10055800C72A7235203E8600870116000104031958
:10056800BF2A7235203E8600870101308102413161
:100578000030813B7F310130F0007008F20708300D
:100588007202031CAD2A2000C00179080319CE2A83
:100598000130F90278080319D32A0130F8023E081D
:1005A800031908000130BE02080078247630F400F0
:1005B8000230F50060248B170B172000E3012F2071
:1005C80011212000E301E401083064020318FD2A28
:1005D8006408303E8600870101080319F52AE30103
:1005E800E30A0130E2006208E40708306402031CF1
:1005F800EC2A6308031D052B7808031979080319E9
:10060800102B3B08031D102BE13038029330393B87
:1006180004303A3B031C372B81241A302000E200B7
:10062800F830890B152BE20B152B000064302000E5
:10063800E2006208BE0020003E080319272BF321C0
:10064800003A03191F2B20003E08031D372B2300F7
:100658009714630000302000BB000030BA0000305F
:10066800B9000030B800F321E32A2000DE01DF01E1
:1006780059085A040319692BE001E00ADA1B4E2BCA
:100688000130D935DA0D890B452B0130DD005D08C5
:10069800E007422B0130DE35DF0D890B4F2B5A085E
:1006A8005C02031D592B59085B02031C602B590877
:1006B800DB025A08DC3B5E140130DA36D90C890BB0
:1006C800612B0130E002031D4E2B5F08DA005E0843
:1006D800D900080022008C013F3021008C00133023
:1006E80023008C000C3024008C0021009513250079
:1006F8008C0122009D0127001311931112159215E8
:10070800111591158530F4000430F5006C248430FF
:10071800F4000430F50066248B150800F401F50197
:100728002000551C9B2B5708F4075808F53D01304D
:10073800D735D80D890B9C2B0130D636D50C890BB3
:10074800A12B55085604031D942B7508D600740870
:10075800D500080001340234103420342034013428
:1007680010340234FC34FC34CF34CF34DE34DE347D
:10077800ED34ED34FA340034FA340034210015082D
:10078800C039113895008730200095008730F40073
:100798007408EB000B118B1608002000670868042A
:1007A8000319DB2B68088A0067080A0083312700D1
:1007B80093110800200069086A040319E82B6A08E5
:1007C8008A0069080A0083312700131108003528B8
:1007D8003A2843284C2855285E2867287028792805
:0407E80082288B28B0
:1008000017291C2925292E29372940294929522908
:100810005B2964296D292000650866040319080016
:1008200066088A0065080A00843108002700131D45
:100830001A2CDE232700931D0800D1230800F500A1
:1008400020003F087504F4007408BF000800F5009C
:10085000750920003F05F4007408BF00080002304D
:100860007606031D352C01300800003008000230E8
:100870007706031D3D2C0130080000300800783059
:100880002100990098012200960108000310200021
:100890008C1D03140030093D0800031020000C1DBE
:1008A00003140030093D0800FE0012001E00FE0B7C
:1008B000552C0034640080010131890B5B2C00341D
:1008C00075082000E6007408E5000800750820009F
:1008D000E8007408E700080075082000EA007408C2
:1008E000E90008000B1120006B0895000B2408009C
:1008F0006E233F247D24C223080016302100970078
:0C09000008002000BF01080008000800EB
:020000040001F9
:04000E00A4F9FFDE74
:00000001FF
