:020000001128C5
:100008007E1480318B1A0B1D0B28CE210F288B19DB
:100018000B1C0F28AB217E1009001228F001F101FA
:10002800F201F301F4012000AB017E1020001C282E
:10003800D721F330F6000030F700C4218B170B17D7
:10004800A901AA01A701A801CF280130DF210230A8
:10005800D3210430D3210830D321D030F000073029
:10006800F1002000AA0AB12870087104031DB12804
:100078000130D3210230DF212D2870087104031DBF
:10008800B1280130D3210230D3210430DF212F28B9
:1000980070087104031DB1280130D3210230D32127
:1000A8000430D3210830DF21312870087104031D82
:1000B800B1280130D3210230D3210430D3210830B4
:1000C800D3212000AA01B1282A088400063004029E
:1000D8000318B1288131B230040782004030DF2193
:1000E8008030D3211030D3212030D321D030F200FA
:1000F8000730F3002000A90ABB2872087304031D07
:10010800BB284030D3218030DF2176287208730461
:10011800031DBB284030D3218030D3211030DF218C
:10012800782872087304031DBB284030D32180301F
:10013800D3211030D3212030DF217A2872087304AC
:10014800031DBB284030D3218030D3211030D32168
:100158002030D3212000A901BB28290884000630BB
:1001680004020318BB288131B830040782000C1937
:10017800C5282708031DC228A901A90AA701A70A9B
:10018800C628A7018C1927282808031DCD28AA01ED
:10019800AA0AA801A80A2908031D68282A08031D15
:1001A800682823009714E2210230F9000430F8008F
:1001B800BA30890BDD28F80BDD28F90BDD28003271
:1001C8006300F201F301F001F10120000C19EE289F
:1001D800A901A90A8C19CF28AA01AA0ACF28F501D2
:1001E800720873040319FC280130F2020030F33B53
:1001F80070087104031904290130F0020030F13B42
:100208007408031D34294B29DC3021008C00F41DAF
:100218000F290230F500F41F4229F5164229EC3067
:1002280021008C00741D1A29F501F50AF41E4229D3
:1002380075164229CD3021008C00F41C2529203068
:10024800F500741E4229F5144229CE3021008C0095
:10025800741C30291030F500741F42297514422986
:100268002B08003A03190829013A03191329033AFC
:1002780003191E29013A0319292942297508200062
:100288008C000430AB0A2B020318AB010800CC30F9
:1002980021008C0020008C01080022008C013F30D6
:1002A80021008C00133023008C000C3024008C00BB
:1002B8002100951325008C0122009D0127001311B0
:1002C80093111215921511159115E530F6000130AC
:1002D800F700BE21E430F6000130F700C9218B1584
:1002E800080020002208230403197F2923088A0014
:1002F80022080A00813127009311080020002408F1
:10030800250403198C2925088A0024080A0081314C
:100318002700131108001508C03911389500063058
:1003280020009500A6000B118B1608002008210458
:100338000319080021088A0020080A0081310800F2
:1003480078302100990098012200960108002700C2
:10035800131DAF298221931D08007529B12829286A
:10036800382841284C285928BB28722881288A28EF
:100378009528A22877082000A5007608A400080080
:100388007708A1007608A00008007708A30076087F
:10039800A20008000B112000260895009A29F600F3
:1003A8007609F40508005121A421DB218F29163094
:1003B800210097000800F600F4040800F401080082
:0403C8000800080021
:020000040001F9
:04000E00A4F9FFDE74
:00000001FF
