:020000001128C5
:100008007E1480318B1A0B1D0B282A220F288B197E
:100018000B1C0F280D227E1009001228F001F10197
:10002800F201F301F4012000AB017E1020001C282E
:1000380033224B30F6000130F70020228B170B17C4
:10004800A901AA01A701A801272904303B220830E9
:100058002F2201302F2202302F2280302F224030D1
:100068002F2220302F2210302F221030F00027307E
:10007800F1002000AA0A092970087104031D092942
:1000880004302F2208303B222D2870087104031DEC
:10009800092904302F2208302F2201303B222F2833
:1000A80070087104031D092904302F2208302F22FB
:1000B80001302F2202303B22312870087104031DC1
:1000C800092904302F2208302F2201302F22023034
:1000D8002F2280303B22332870087104031D092920
:1000E80004302F2208302F2201302F2202302F22F5
:1000F80080302F2240303B22352870087104031DC0
:10010800092904302F2208302F2201302F220230F3
:100118002F2280302F2240302F2220303B223728B8
:1001280070087104031D092904302F2208302F227A
:1001380001302F2202302F2280302F2240302F22F0
:1001480020302F2210303B22392870087104031DFB
:10015800092904302F2208302F2201302F220230A3
:100168002F2280302F2240302F2220302F22103093
:100178002F222000AA0109292A0884000A30040233
:10018800031809298131F2300407820040303B22EC
:1001980080302F2210302F2220302F221030F200F2
:1001A8002730F3002000A90A132972087304031DDD
:1001B800132940302F2280303B22CE287208730446
:1001C800031D132940302F2280302F2210303B226C
:1001D800D02872087304031D132940302F22803061
:1001E8002F2210302F2220303B22D228720873048D
:1001F800031D132940302F2280302F2210302F2248
:1002080020302F222000A901132929088400063054
:1002180004020318132982311430040782000C19D0
:100228001D292708031D1A29A901A90AA701A70A38
:100238001E29A7018C1927282808031D2529AA018A
:10024800AA0AA801A80A2908031DC0282A08031D0C
:10025800C028230097143E220230F9000430F80029
:10026800BA30890B3529F80B3529F90B35290032B5
:100278006300F201F301F001F10120000C19462995
:10028800A901A90A8C192729AA01AA0A2729F5016F
:1002980072087304031954290130F2020030F33B49
:1002A8007008710403195C290130F0020030F13B39
:1002B8007408031D8C29A329DC3021008C00F41D4F
:1002C80067290230F500F41F9A29F5169A29EC30AF
:1002D80021008C00741D7229F501F50AF41E9A2973
:1002E80075169A29CD3021008C00F41C7D29203008
:1002F800F500741E9A29F5149A29CE3021008C0035
:10030800741C88291030F500741F9A2975149A29CD
:100318002B08003A03196029013A03196B29033A9B
:1003280003197629013A031981299A2975082000A9
:100338008C000430AB0A2B020318AB010800CC3048
:1003480021008C0020008C01080022008C013F3025
:1003580021008C00133023008C000C3024008C000A
:100368002100951325008C0122009D0127001311FF
:10037800931112159215111591154130F60002309E
:10038800F7001A224030F6000230F70025228B15BC
:1003980008002000220823040319D72923088A000B
:1003A80022080A0081312700931108002000240840
:1003B80025040319E42925088A0024080A00813144
:1003C8002700131108001508C039113895000630A8
:1003D80020009500A6000B118B1608000929292872
:1003E8004028492854286128702881289428A92859
:1003F800200821040319080021088A0020080A009F
:100408008231080078302100990098012200960175
:1004180008002700131D112ADA21931D0800CD2991
:100428001329CA28D928E228ED28FA2877082000B5
:10043800A5007608A40008007708A1007608A000A7
:1004480008007708A3007608A20008000B11200016
:1004580026089500FC29F6007609F4050800A9216C
:1004680006223722E7291630210097000800F600F7
:0C047800F4040800F4010800080008006B
:020000040001F9
:04000E00A4F9FFDE74
:00000001FF
