:020000001128C5
:100008007E1480318B1A0B1D0B2876250F288B192F
:100018000B1C0F283E257E1009001228FC30D20048
:10002800D300CF30D400D500DE30D600D700ED3075
:10003800D800D900FA30DA00DB01DC000130DD013C
:10004800DE002100A0000230A1001030A200203004
:10005800A300A4000130A5001030A6000230A700BC
:100068002030F701F801F901FA0184000030850019
:10007800323045257E102000ED2B24082504031D71
:100088000800320803190800D128013083250230FE
:10009800672504306725083067251030672520302C
:1000A80067254030672580306725DB2801308325A8
:1000B800023083250430672508306725103067250E
:1000C800203067254030672580306725DB280130E0
:1000D80083250230832504308325083067251030B6
:1000E8006725203067254030672580306725DB2865
:1000F8000130832502308325043083250830832589
:100108001030672520306725403067258030672507
:10011800DB2801308325023083250430832508300D
:1001280083251030832520306725403067258030AF
:100138006725DB2801308325023083250430832599
:1001480008308325103083252030832540306725EB
:1001580080306725DB280130832502308325043071
:1001680083250830832510308325203083254030AF
:10017800832580306725DB280130832502308325DD
:1001880004308325083083251030832520308325CB
:100198004030832580308325DB285E0884000930C1
:1001A80004020318DB2885312E3004078200470833
:1001B8003F06031DE92846083E06031DE9284508B1
:1001C8003D06031DE92844083C060319A329963077
:1001D800DF00E001E101E2013C08DF073D08E03D06
:1001E8003E08E13D3F08E23D62084702031D06293B
:1001F80061084602031D062960084502031D0629F9
:100208005F08440203189A290930DE0A5E02031CBB
:100218009A29FF30DE01832503302000E0000830F2
:10022800DF007730890B1629DF0B1629E00B16291A
:10023800FF30672503302000E0000830DF0077300A
:10024800890B2429DF0B2429E00B2429FF3083257F
:1002580003302000E0000830DF007730890B3229B6
:10026800DF0B3229E00B3229FF30672503302000ED
:10027800E0000830DF007730890B4029DF0B402988
:10028800E00B4029FF30832503302000E0000830D0
:10029800DF007730890B4E29DF0B4E29E00B4E2902
:1002A800FF30672503302000E0000830DF0077309A
:1002B800890B5C29DF0B5C29E00B5C29FF30832567
:1002C80003302000E0000830DF007730890B6A290E
:1002D800DF0B6A29E00B6A29FF306725033020000D
:1002E800E0000830DF007730890B7829DF0B7829A8
:1002F800E00B7829FF30832503302000E000083028
:10030800DF007730890B8629DF0B8629E00B8629E9
:10031800FF30672503302000E0000830DF00773029
:10032800890B9429DF0B9429E00B942920004708B6
:10033800BF004608BE004508BD004408BC004B0885
:100348003B02031DB1294A083A02031DB129490895
:100358003902031DB1294808380203180800A030E3
:100368004807B8000030493DB90000304A3DBA009E
:1003780000304B3DBB005E08031DDE030800220869
:100388002304031D0800272AFA30DA00DB01312A8A
:100398008030832540306725203067251030672559
:1003A800312A80306725403083252030672510307A
:1003B8006725312A8030672540306725203083251E
:1003C80010306725312A8030672540306725203076
:1003D800672510308325312A80306725403067250E
:1003E8002030832510306725312A8030672540303A
:1003F80083252030672510306725312A80308325F2
:10040800403067252030672510306725312A803035
:100418008325403083252030832510308325312AD9
:1004280080306725403067252030672510306725E4
:10043800312A803067254030672520306725103005
:100448006725B101312A310884000B3004020318F2
:10045800252A85311930040782003108031908005C
:1004680007303106031D542A7125003A0319522A10
:1004780000305B02043003195A02031C502A7D2203
:100488005030F500F601D42485228B246208DB0065
:100498006108DA0002306F2A0830722A0A306F2A9F
:1004A80009303106031D772A7125003A0319772A86
:1004B80000305B020B3003195A02031C712A7D229B
:1004C8005F30F500F601D42485228B246208DB0016
:1004D8006108DA000830B100782A0130B100FA303A
:1004E800DA00DB01782AB10A5B08A3005A08A200E7
:1004F80008006430E100E2015B08F4005A08F300E8
:1005080008007408E4007308E300080020082104C8
:10051800031D0800EE2AFA30DC00DD01F82A01305C
:100528008325023067250430672508306725F82AB7
:100538000130672502308325043067250830672598
:10054800F82A0130672502306725043083250830F2
:100558006725F82A013067250230672504306725AA
:1005680008308325F82A01306725023067250430D2
:10057800832508306725F82A01306725023083254E
:100588000430672508306725F82A013083250230B2
:1005980067250430672508306725F82A0130832548
:1005A800023083250430832508308325F82A01305A
:1005B8006725023067250430672508306725F82A43
:1005C8000130672502306725043067250830672524
:1005D800B001F82A300884000B3004020318EC2A12
:1005E80085310E30040782003008031908000730EF
:1005F8003006031D1B2B6C25003A0319192B0030FC
:100608005D02043003195C02031C172B442350308D
:10061800F500F601D42485228B246208DD006108E8
:10062800DC000230362B0830392B0A30362B0930E3
:100638003006031D3E2B6C25003A03193E2B003073
:100648005D020B3003195C02031C382B44235F3016
:10065800F500F601D42485228B246208DD006108A8
:10066800DC000830B0003F2B0130B000FA30DC006D
:10067800DD013F2BB00A5D08A1005C08A00008005E
:100688006430E100E2015D08F4005C08F300080052
:100698005725003A03195D2B780B572B7A08031D51
:1006A8006F2B0230652B0230780603196F2B01304F
:1006B8006C2B03307806031D672B7A08031D6F2BFC
:1006C8000430F8006F2B0430780603196F2B0330C1
:1006D800F8001430FA005125003A0319802B770BE3
:1006E8007A2B7908031D922B0230882B023077066B
:1006F8000319922B01308F2B03307706031D8A2BA9
:100708007908031D922B0430F700922B04307706EA
:100718000319922B0330F7001430F9007125003AC1
:1007280003199E2B4E08031D9B2B0130B100CE01EF
:10073800CE0A9F2BCE016C25003A0319DF2B4D08FA
:10074800031DDC2B0130B0007125003A0319D42BAE
:10075800FA30F300F401F501F6014408F3074508FF
:10076800F43D4608F53D4708F63D76084B02031D63
:10077800C72B75084A02031DC72B74084902031DBD
:10078800C72B730848020318D32B0430CC0A4C0635
:10079800031DD42BB001B1010130B200D42BCC0120
:1007A8004B08C7004A08C6004908C5004808C400E5
:1007B800CD01CD0AE02BCD01DF01DF0A5725003A34
:1007C800031DEB2B5125003A031DEB2BDF015F08BE
:1007D80008007B253F30F3000430F4005D258B17BB
:1007E8000B178A22C32141202100A801A901290849
:1007F800303E8600870101080319042CA801A80AC5
:100808000830A90A2902031CFB2B2808031D112CF8
:10081800790803197A0803191D2C20004B08031DB9
:100828001D2CE13048029330493B04304A3B031CFD
:100838003D2C87251A302000E800F830890B222C3F
:10084800E80B222C000064302000CF002F2C4C2312
:10085800003A031D322C4F08031D2B2C4F08031D93
:100868003D2C2300971463002000C801C901CA0168
:10087800CB014C23F52BCC3021008C0020008C01BF
:100888000130F000510A492CF035890B482C7008CA
:10089800F200500503195D2C5108523E860087016D
:1008A800010821008C0020005108A03E86000108A4
:1008B8008C000830D10A5106031D08000130C80712
:1008C8000030C93DCA3DCB3DF2017235203E86005D
:1008D80087011600010403197B2C7235203E86001F
:1008E80001308701810200304131813B7F3108307E
:1008F800F20A7202031C692CD1017A08031DFA035B
:100908007908031DF9034F08031DCF030800E6010A
:10091800E701610862040319AB2CE501E50AE21B53
:10092800982CE135E20D922CE635E70D6208640259
:10093800031DA02C61086302031CA72C6108E302B5
:100948006208E43B6614E236E10CE50B982C670874
:10095800E2006608E100080022008C013F30210017
:100968008C00133023008C000C3024008C002100F4
:10097800951325008C0122009D0127001311931166
:1009880012159215111591158B30F3000530F400EE
:100998004B258A30F3000530F40062258B150800DA
:1009A800DF01E001731CDC2C7508DF077608E03DE9
:1009B800F535F60DF436F30C73087404031DD62CC4
:1009C8006008F4005F08F300080020006B086C045E
:1009D8000319F32C6C088A006B080A00843127007D
:1009E8009311080020006D086E040319002D6E088D
:1009F8008A006D080A0084312700131108001508C1
:100A0800C03911389500873020009500EF000B1190
:100A18008B1608008F2A932A9C2AA52AAE2AB72A61
:100A2800C02AC92AD22ADB2AE42AC829CC29D529EE
:100A3800DE29E729F029F929022A0B2A142A1D2A76
:100A480069086A04031908006A088A0069080A0024
:100A580085310800DB2849285A286B287C288D28EE
:100A68009E28AF28C02878302100990098012200DC
:100A7800960108002700131D422DF624931D080037
:100A8800E92C640080010131890B462D003474087B
:100A98002000EE007308ED00080003108C1D0314FD
:100AA8000030093D080003100C1D03140030093DF7
:100AB80008007408EA007308E90008007408EC00EC
:100AC8007308EB000800F30073092000D005080044
:100AD800023077060319013400340230780603190E
:100AE800013400340B1120006F089500242DB02428
:100AF80037257F25032D1630210097000800F300C5
:100B08002000D00408002000D001080008000800D8
:020000040001F9
:04000E00A4F9FFDE74
:00000001FF
