:020000001728BF
:100008007E14803120007F08F3008B1A0B1D0E2808
:10001800772212288B190B1C122821227308200022
:10002800FF007E1009001828DB308400813085002D
:100038003C3086000030870012304D22F601F7016F
:10004800F801F90120308400003085001C3053226B
:100058007E1020004B29200022082304031D0800DD
:100068006928E830CC000330CD0073288030312275
:10007800403038222030382210303822732880301F
:10008800382240303122203038221030382273286C
:100098008030382240303822203031221030382247
:1000A80073288030382240303822203038221030EF
:1000B80031227328803038224030382220303822CC
:1000C800103038222000B10173283108840006302E
:1000D8000402031867288231713004078200200067
:1000E80031080319080004303106031D9028462200
:1000F800003A0319902801302000D5005508B100B6
:1001080000304D02333003194C02031C95280F3080
:10011800CC020030CD3B952801302000D500550891
:10012800B1074D08A3004C08A200080020003008C1
:100138000319080020082104031D0800D2280130F3
:100148003122023038220430382208303822DC28A4
:100158000130382202303122043038220830382267
:10016800DC280130382202303822043031220830AD
:100178003822DC2801303822023038220430382274
:1001880008303122DC28013038220230382204308D
:100198003822083038222000B001DC2830088400DA
:1001A800063004020318D02882316B30040782001D
:1001B800200030080319080004303006031DEE281B
:1001C8003F22003A0319EE2801302000D5005508D7
:1001D800B000F32801302000D5005508B007E830FA
:1001E800A0000330A1000800CC3021008C002000C2
:1001F8008C010130F000790A0229F035890B0129B8
:100208007008F1007108F2007208780503191A29BC
:100218007908443E86008701010821008C0079088E
:100228003C3E86008701010820008C000130F00068
:100238007008F90708307906031D08000130B8076F
:100248000030B93D0030BA3D0030BB3DF201083006
:100258007202031849297235203E8600870116006C
:100268000104031941297235203E860087010130B7
:10027800810241310030813B7F310130F00070084C
:10028800F20708307202031C2F29F90108007D22A9
:10029800F830F4000030F50059228B170B172000B6
:1002A800D7019A202F202000D701D8010830580202
:1002B80003186F295808303E860087010108031982
:1002C8006729D701D70A0130D6005608D807083061
:1002D8005802031C5E29570803197E293B08031D91
:1002E8007E293A08031D7E2961303802EA30393BFD
:1002F800031C942923009714862234302000D6004A
:10030800F130890B8529D60B85290032630000302E
:100318002000BB000030BA000030B9000030B8003F
:10032800BA21552922008C013F3021008C0013305E
:1003380023008C000C3024008C002100951325002C
:100348008C0122009D01270013119311121592159B
:10035800111591158930F4000230F50065228830B6
:10036800F4000230F5005F228B1508004622003A9F
:100378000319C9297708031DC6290130F400740838
:100388002000B100F701F70ACA29F7013F22003A15
:100398000319D9297608031DD6290130F4007408F9
:1003A8002000B000F601F60A0800F6010800013442
:1003B8000234103420342034013410340234FC3434
:1003C800FC34CF34CF34DE34DE34ED34ED34E8346D
:1003D800033421001508C0391138950087302000F2
:1003E80095008730F4007408D4000B118B160800B0
:1003F8002000500851040319062A51088A005008A1
:100408000A00823127009311080020005208530483
:100418000319132A53088A0052080A008231270058
:100428001311080020004E084F04031908004F0854
:100438008A004E080A00823108002700131D252A69
:1004480009222700931D0800FC21080078302100AC
:1004580099009801220096010800F50078087504B3
:10046800F4007408F8000800F50075097805F40030
:100478007408F8000800031020008C1D03140030D5
:10048800093D0800031020000C1D03140030093D2D
:100498000800FE0012001E00FE0B4E2A0034640005
:1004A80080010131890B542A003475082000CF00DF
:1004B8007408CE00080075082000D1007408D00028
:1004C800080075082000D3007408D2000800DC2852
:1004D800A328AC28B528BE28C72835283A28432899
:1004E8004C2855285E280B11200054089500162228
:1004F800080096212A228222ED21080016302100C8
:0C05080097000800F80108000800080037
:020000040001F9
:04000E00A4F9FFDE74
:00000001FF
