:020000001128C5
:100008007E1480318B1A0B1D0B28CE210F288B19DB
:100018000B1C0F28AB217E10090012280130FD00AF
:10002800A0000230A1001030A2002030A300A400DC
:100038000130A5001030A6000230A700FC30A8004F
:10004800A900CF30AA00AB00DE30AC00AD00ED3027
:10005800AE00AF00F001F101F201F301F401F50186
:10006800F601B701B8017E102000D62879280130A2
:10007800DF210230DB210430DB210830DB21842042
:10008800B80A080070087104031D08000130DB215C
:100098000230DF213F2870087104031D0800013079
:1000A800DB210230DB210430DF2141287008710494
:1000B800031D08000130DB210230DB210430DB2185
:1000C8000830DF21432870087104031D080001303F
:1000D800DB210230DB210430DB210830DB218420E6
:1000E800B80174100800B801080038088400063008
:1000F8000402031877288131B83004078200080009
:10010800E830F0000330F10020000800CB288030F0
:10011800DF214030DB212030DB211030DB21E830CB
:10012800F2000330F3002000B70A080072087304D5
:10013800031D08008030DB214030DF218F28720842
:100148007304031D08008030DB214030DB212030A0
:10015800DF21912872087304031D08008030DB2119
:100168004030DB212030DB211030DF21932872085A
:100178007304031D08008030DB214030DB21203070
:10018800DB211030DB212000B701F410080037080C
:1001980084000630040203180800BE3081310407C9
:1001A80082000800D3212030F7000130F800C42174
:1001B8008B170B17FB01FC01740803190029741C29
:1001C800E6283A20F41CE9288A200C19F4287B0830
:1001D800031DF128F414B701B70AFB01FB0AF5283F
:1001E800FB018C19DF287C08031DFD287414B80155
:1001F800B80AFC01FC0AE02823009714E221023027
:10020800FA000430F900BA30890B0829F90B0829DB
:10021800FA0B082900326300F201F301F001F10141
:1002280020000C191A29F414B701B70A8C19E02810
:100238007414B801B80AE02872087304031928294D
:100248000130F2020030F33B7008710403193029C1
:100258000130F0020030F13BCC3021008C0020004E
:100268008C017D087605031946297508283E860005
:100278008701010821008C007508203E86000108CE
:1002880020008C00F50A7D35FD0008307506031D39
:1002980008000130F501FD00080022008C013F3004
:1002A80021008C00133023008C000C3024008C00BB
:1002B8002100951325008C0122009D0127001311B0
:1002C80093111215921511159115E530F7000130AB
:1002D800F800B221E430F7000130F800C9218B158D
:1002E800080020003208330403197F2933088A00E4
:1002F80032080A00813127009311080020003408D1
:10030800350403198C2935088A0034080A0081311C
:100318002700131108001508C039113895009030CE
:1003280020009500B6000B118B1608003008310428
:100338000319080031088A0030080A0081310800D2
:1003480078302100990098012200960108002700C2
:10035800131DAF298221931D0800752978082000F4
:10036800B5007708B400080083283B2846284F28A2
:100378005A286728D5288B289A28A328AE28BB286E
:100388007808B1007708B00008007808B30077084B
:10039800B20008000B112000360895009A29512157
:1003A800A421D7218F291630210097000800F700D3
:1003B8007709F6050800F700F6040800F6010800BA
:0403C8000800080021
:020000040001F9
:04000E00A4F9FFDE74
:00000001FF
