:020000001128C5
:100008007E1480318B1A0B1D0B2816220F288B1992
:100018000B1C0F28DC217E10090012288D3084006B
:100028008130850038308600003087001230E321A7
:100038002030F501F601F701F80184000030850051
:100048001830E9217E1020001E2922082304031DF0
:1000580008006228E830C8000330C9006C288030E6
:1000680027224030232220302322103023226C28DC
:1000780080302322403027222030232210302322B0
:100088006C28803023224030232220302722103051
:1000980023226C2880302322403023222030232240
:1000A800103027226C288030232240302322203031
:1000B8002322103023222000B1016C28310884004B
:1000C8000630040203185F288231003004078200DA
:1000D800200031080319080004303106031D862862
:1000E800D521003A031986280130B10000304902B1
:1000F800333003194802031C87280F30C802003028
:10010800C93B8728B10A4908A3004808A20008008B
:1001180030080319080020082104031D0800C3281B
:1001280001302722023023220430232208302322E0
:10013800CD28013023220230272204302322083020
:100148002322CD2801302322023023220430272203
:1001580008302322CD280130232202302322043004
:10016800232208302722CD280130232202302322DF
:1001780004302322083023222000B001CD28300883
:100188008400063004020318C1288131F5300407C1
:100198008200200030080319080004303006031DCF
:1001A800DC280622003A0319DC280130B000DD28DB
:1001B800B00AE830A0000330A1000800F20172354F
:1001C800203E86008701160001040319F5287235C0
:1001D800203E860001308701810200304131813B99
:1001E8007F310830F20A7202031CE328CC30210068
:1001F8008C0020008C010130F000780A0429F035C9
:10020800890B03297008F200770503191829780863
:10021800403E86008701010821008C007808383E9E
:100228008600010820008C000830F80A78060319B7
:10023800F80108001B22E230F3000030F4000C2221
:100248008B170B178C202920D201D3015308303E7D
:1002580086008701010803193329D201D20A083020
:10026800D30A5302031C2A295208031D4C292300D0
:1002780097142A2202302000D1000430D000BA306E
:10028800890B4429D00B4429D10B44290000630071
:100298007221262922008C013F3021008C00133066
:1002A80023008C000C3024008C00210095132500BD
:1002B8008C0122009D01270013119311121592152C
:1002C800111591152D30F3000230F400EF212C3078
:1002D800F3000230F40011228B150800D521003AF2
:1002E80003197E297608031D7B290130B100F60128
:1002F800F60A7F29F6010622003A03198B297508A8
:10030800031D88290130B000F501F50A0800F50140
:1003180008000134023410342034203401341034FD
:100328000234FC34FC34CF34CF34DE34DE34ED34E4
:10033800ED34E834033420004C084D040319A9298E
:100348004D088A004C080A008131270093110800E3
:1003580020004E084F040319B6294F088A004E089A
:100368000A0081312700131108001508C039113817
:100378009500903020009500F9000B118B160800AD
:100388004A084B04031908004B088A004A080A0067
:1003980081310800783021009900980122009601E7
:1003A8000800031020000C1D03140030093D08004C
:1003B8002700131DE029AC21931D08009F29FE008A
:1003C80012001E00FE0BE429003464008001013194
:1003D800890BEA29003474082000CF007308CE0086
:0E03E8000800CD2894289D28A628AF28B82804
:100400002E2833283C2845284E28572803108C1DB9
:1004100003140030093D08007408CB007308CA00BB
:1004200008007408CD007308CC0008000B1179088F
:1004300020009500C4294E21CE211F22B929163053
:10044000210097000800F3007309F7050800F30086
:0C045000F7040800F7010800080008008D
:020000040001F9
:04000E00A4F9FFDE74
:00000001FF
