:020000001728BF
:100008007E14803120007F08F2008B1A0B1D0E2809
:100018000C2212288B190B1C1228D02172082000E0
:10002800FF007E1009001828F701F801F9012000E7
:10003800AB01AC01AD017E102000222812220E3047
:10004800F3000130F400FA218B170B172000A901E7
:10005800AA01A701E9280130D9210230E0210430A2
:10006800E0210830E0215E282B082C04031DCA2853
:100078000130E0210230D9210430E0210830E021AC
:100088005E282B082C04031DCA280130E021023009
:10009800E0210430D9210830E0215E282B082C0407
:1000A800031DCA280130E0210230E0210430E0219C
:1000B8000830D921D0302000AB000730AC00013027
:1000C800F5007508AA07CA282B082C04031DCA289E
:1000D8000130E0210230E0210430E0210830E02145
:1000E8002000AA01CA282A0884000630040203183E
:1000F800CA288131EE3004078200CA284030D9214D
:100108008030E0211030E0212030E021B12877084C
:100118007804031DD4284030E0218030D9211030E4
:10012800E0212030E021B12877087804031DD42885
:100138004030E0218030E0211030D9212030E0210A
:10014800B12877087804031DD4284030E021803096
:10015800E0211030E0212030D921D030F7000730DD
:10016800F8000130F50075082000A907D4287708A1
:100178007804031DD4284030E0218030E02110307D
:10018800E0212030E0212000A901D428290884009A
:10019800063004020318D4288131F43004078200A1
:1001A8000C19DE282708031DDB28A901A90AA701C5
:1001B800A70ADF28A7018C19E9282808031DE628C3
:1001C800AA01AA0AA801A80AEA28A8012908031D61
:1001D80077282A08031D7728230097141B2202304A
:1001E800F6000430F500BA30890BF828F50BF8282A
:1001F800F60BF82800326300F701F8012000AB0184
:10020800AC010C190929A901A90A8C19EA28AA0123
:10021800AA0AEA28F1017708780403191729013096
:10022800F7020030F83B20002B082C040319202982
:100238000130AB020030AC3B7908031D5629722906
:10024800DC3021008C00F91D2D290230F0007008E7
:10025800F100F91F6529F1166529EC3021008C00A1
:10026800791D3829F101F10AF91E652971166529E8
:10027800CD3021008C00F91C45292030F000700891
:10028800F100791E6529F1146529CE3021008C0012
:10029800791C52291030F0007008F100791F652987
:1002A8007114652920002D08003A03192429013A00
:1002B80003193129033A03193C29013A0319492939
:1002C8006529710820008C000130F0007008AD0726
:1002D80004302D02031C0800AD010800CC302100B9
:1002E8008C0020008C01080022008C013F30210086
:1002F8008C00133023008C000C3024008C0021006B
:10030800951325008C0122009D01270013119311DC
:1003180012159215111591151E30F3000230F400D4
:1003280006221D30F3000230F40000228B1508006D
:1003380021001508C03911389500063020009500B5
:100348000630F3007308A6000B118B160800200076
:10035800220823040319B52923088A0022080A0061
:10036800813127009311080020002408250403196F
:10037800C22925088A0024080A00813127001311A0
:1003880008002000200821040319080021088A0019
:1003980020080A00813108002700131DD429B8213C
:1003A8002700931D0800AB210800F40079087404A5
:1003B800F3007308F9000800F40074097905F300E4
:1003C8007308F9000800783021009900980122008C
:1003D80096010800CA282F28382845285228682856
:1003E800D42882288B289828A528BB2874082000A0
:1003F800A1007308A000080074082000A300730877
:10040800A200080074082000A5007308A4000800D2
:100418000B11200026089500C52108007821E72146
:1004280017229C2108001630210097000800F901C6
:06043800080008000800A6
:020000040001F9
:04000E00A4F9FFDE74
:00000001FF
