:020000001128C5
:100008007E1480318B1A0B1D0B28FD220F288B19AB
:100018000B1C0F28B8227E10090012286E308400AD
:100028008230850041308600003087001430BF22BE
:100038002030F701F801F901FA0184000030850049
:100048002130C5227E102000742922082304031DB4
:1000580008006028FA30D100D2016A2880300E23C7
:1000680040300A2320300A2310300A236A288030BF
:100078000A2340300E2320300A2310300A236A282E
:1000880080300A2340300A2320300E2310300A2300
:100098006A2880300A2340300A2320300A2310308F
:1000A8000E236A2880300A2340300A2320300A238E
:1000B80010300A23B1016A2831088400063004028E
:1000C80003185E288231D7300407820031080319EB
:1000D800080004303106031D8D28F822003A031960
:1000E8008D280130B1000030520206300319510248
:1000F800031C8E286430D700D8015208F400510838
:1001080098205922932010225808D2005708D1006D
:100118008E28B10A5208A3005108A20008007408EA
:10012800DA007308D9000800F3005A30F500F60128
:100138000800E322003A0319AE28780BA8287A08A9
:10014800031DC0280230B628023078060319C028DB
:100158000130BD2803307806031DB8287A08031D2E
:10016800C0280430F800C028043078060319C028D5
:100178000330F8003230FA00DD22003A0319D128A2
:10018800770BCB287908031DE3280230D9280230E1
:1001980077060319E3280130E02803307706031DAA
:1001A800DB287908031DE3280430F700E32804302E
:1001B80077060319E3280330F7003230F900F822F4
:1001C800003A0319EF283D08031DEC280130B1005F
:1001D800BD01BD0AF028BD01F322003A0319FC282D
:1001E8003C08031DF9280130B000BC01BC0AFD28F9
:1001F800BC01F301F30AE322003A031D0829DD22BA
:10020800003A031D0829F301730808002008210497
:10021800031D08004129FA30D300D4014B290130CD
:100228000E2302300A2304300A2308300A234B29FC
:1002380001300A2302300E2304300A2308300A232F
:100248004B2901300A2302300A2304300E230830D8
:100258000A234B2901300A2302300A2304300A23D7
:1002680008300E234B2901300A2302300A230430B8
:100278000A2308300A23B0014B29300884000630CD
:10028800040203183F298231D13004078200300864
:100298000319080004303006031D6E29F322003AC2
:1002A80003196E290130B0000030540206300319DA
:1002B8005302031C6F296430D700D8015408F40096
:1002C800530898205922932010225808D400570820
:1002D800D3006F29B00A5408A1005308A0000800F1
:1002E8000223C430F3000130F400E9228B170B1706
:1002F8000A212920DF01E0016008303E86008701DD
:10030800010803198929DF01DF0A0830E00A6002C1
:10031800031C80295F08031D9629790803197A08A8
:100328000319A2293B08031DA2293A08031DA22983
:1003380061303802EA30393B031CC22911231A30D4
:100348002000DE00F830890BA729DE0BA729000062
:1003580064302000BE00B4299D20003A031DB7294F
:100368003E08031DB0293E08031DC2292300971427
:1003780063002000B801B901BA01BB019D207C29A6
:10038800CC3021008C0020008C010130F000400AA4
:10039800CE29F035890BCD297008F2003F050319E5
:1003A800E2294008493E86008701010821008C00A7
:1003B80020004008413E860001088C000830C00A31
:1003C8004006031D08000130B8070030B93DBA3DAA
:1003D800BB3DF2017235203E8600870116000104FC
:1003E8000319002A7235203E8600013087018102F8
:1003F80000304131813B7F310830F20A7202031C20
:10040800EE29C0017A08031DFA037908031DF903D0
:100418003E08031DBE030800DB01DC015708580431
:100428000319302ADD01DD0AD81B1D2AD735D80D5E
:10043800172ADB35DC0D58085A02031D252A5708F0
:100448005902031C2C2A5708D9025808DA3B5B14B6
:10045800D836D70CDD0B1D2A5C08D8005B08D700FE
:10046800080022008C013F3021008C00133023004B
:100478008C000C3024008C002100951325008C0181
:1004880022009D01270013119311121592151115C1
:1004980091151430F3000330F400CB221330F3002D
:1004A8000330F400EE228B150800D501D601731C29
:1004B800612A7508D5077608D63DF535F60DF43668
:1004C800F30C73087404031D5B2A5608F4005508DE
:1004D800F30008000134023410342034203401348D
:1004E80010340234FC34FC34CF34CF34DE34DE3400
:1004F800ED34ED34FA340034FA3400342000630863
:10050800640403198C2A64088A0063080A0082318B
:100518002700931108002000650866040319992A2A
:1005280066088A0065080A0082312700131108004E
:100538001508C03911389500873020009500E7006C
:100548000B118B1608006108620403190800620881
:100558008A0061080A008231080078302100990079
:1005680098012200960108002700131DBC2A8F223B
:10057800931D0800822AFE0012001E00FE0BC02AEE
:100588000034640080010131890BC62A00347408E4
:100598002000E6007308E50008000F2913291C292C
:1005A80025292E2937292E2832283B2844284D284A
:1005B800562803108C1D03140030093D0800031051
:1005C8000C1D03140030093D08007408E20073088C
:1005D800E10008007408E4007308E3000800023032
:1005E8007706031901340034023078060319013400
:1005F80000340B11200067089500A72A3522B12284
:1006080006239C2A1630210097000800F30073097E
:10061800BF050800F300BF040800BF010800080078
:020628000800C8
:020000040001F9
:04000E00A4F9FFDE74
:00000001FF
