:020000001728BF
:100008007E14803120007F08F3008B1A0B1D0E2808
:100018004B2612288B190B1C1228EF257308200079
:10002800FF007E10090018285130840086308500B2
:10003800693086000030870005302D268C3084001A
:1000480085308500A03086000030870010302D26CE
:10005800F601F701F801F90120308400003085002D
:10006800323033267E102000B62C200024082504C8
:10007800031D0800320803190800CA280130F825B2
:1000880002300026043000260830002610300026F2
:10009800203000264030002680300026D528013048
:1000A800F8250230F82504300026083000261030E4
:1000B8000026203000264030002680300026D52833
:1000C8000130F8250230F8250430F82508300026DC
:1000D80010300026203000264030002680300026D0
:1000E800D5280130F8250230F8250430F8250830E5
:1000F800F8251030002620300026403000268030B9
:100108000026D5280130F8250230F8250430F825D6
:100118000830F8251030F825203000264030002619
:1001280080300026D5280130F8250230F825043023
:10013800F8250830F8251030F8252030F82540300B
:10014800002680300026D5280130F8250230F82511
:100158000430F8250830F8251030F8252030F82527
:100168004030F82580300026D5280130F8250230A7
:10017800F8250430F8250830F8251030F825203007
:10018800F8254030F8258030F825D52820006D085E
:100198008400093004020318D5288531E6300407A5
:1001A8008200200047083F06031DE42846083E0653
:1001B800031DE42845083D06031DE42844083C06C1
:1001C8000319A4299630D2000030D3000030D4009F
:1001D8000030D5003C08D2073D08D33D3E08D43D49
:1001E8003F08D53D55084702031D04295408460217
:1001F800031D042953084502031D0429520844021B
:1002080003189B290130D2005208ED0709306D020E
:10021800031C9B29ED01FF30F82503302000D30093
:100228000830D2007730890B1729D20B1729D30B46
:100238001729FF30002603302000D3000830D200F1
:100248007730890B2529D20B2529D30B2529FF3097
:10025800F82503302000D3000830D2007730890B0E
:100268003329D20B3329D30B3329FF30002603302F
:100278002000D3000830D2007730890B4129D20BF7
:100288004129D30B4129FF30F82503302000D30042
:100298000830D2007730890B4F29D20B4F29D30B66
:1002A8004F29FF30002603302000D3000830D20049
:1002B8007730890B5D29D20B5D29D30B5D29FF307F
:1002C800F82503302000D3000830D2007730890B9E
:1002D8006B29D20B6B29D30B6B29FF300026033017
:1002E8002000D3000830D2007730890B7929D20B4F
:1002F8007929D30B7929FF30F82503302000D30062
:100308000830D2007730890B8729D20B8729D30B85
:100318008729FF30002603302000D3000830D200A0
:100328007730890B9529D20B9529D30B9529200075
:100338004708BF004608BE004508BD004408BC0089
:100348004B083B02031DB2294A083A02031DB22991
:1003580049083902031DB229480838020318080061
:10036800A0304807B8000030493DB90000304A3D88
:10037800BA0000304B3DBB006D080319080001307E
:10038800ED020800200020082104031D08002D2A82
:10039800FA30EB000030EC00372A0130F825023043
:1003A80000260430002608300026372A01300026AF
:1003B8000230F8250430002608300026372A01309C
:1003C8000026023000260430F82508300026372A97
:1003D8000130002602300026043000260830F825B7
:1003E800372A01300026023000260430F82508306C
:1003F8000026372A013000260230F825043000266E
:1004080008300026372A0130F8250230002604304B
:10041800002608300026372A0130F8250230F82552
:100428000430F8250830F825372A01300026023034
:1004380000260430002608300026372A013000261E
:100448000230002604300026083000262000B001C3
:10045800372A300884000B30040203182B2A853110
:10046800C53004078200200030080319080007304F
:100478003006031D6A2A0826003A0319672A003045
:1004880020006C02043003196B02031C652A6430D7
:10049800D6000030D7006C08D3006B08D20050306B
:1004A800D4000030D500702520005308D900520828
:1004B800D800172520005708EC005608EB0002303A
:1004C800932A0830982A0A302000932A09303006E7
:1004D800031DA02A0826003A0319A02A003020008C
:1004E8006C020B3003196B02031C972A6430D60088
:1004F8000030D7006C08D3006B08D2005F30D400FE
:100508000030D500702520005308D9005208D800C3
:10051800172520005708EC005608EB000830DE00CD
:100528005E08B000A52A0130DE005E08B000FA308F
:10053800EB000030EC00A52A01302000DE005E0848
:10054800B0076C08A1006B08A00008002000220872
:100558002304031D0800112BFA30E9000030EA00DB
:100568001B2B8030F8254030002620300026103024
:1005780000261B2B803000264030F825203000262E
:10058800103000261B2B80300026403000262030FB
:10059800F825103000261B2B80300026403000261E
:1005A800203000261030F8251B2B803000264030E4
:1005B80000262030F825103000261B2B803000261E
:1005C8004030F82520300026103000261B2B8030C4
:1005D800F8254030002620300026103000261B2B3E
:1005E8008030F8254030F8252030F8251030F825DF
:1005F8001B2B80300026403000262030002610308B
:1006080000261B2B80300026403000262030002694
:10061800103000262000B1011B2B310884000B305C
:10062800040203180F2B8531D03004078200200004
:1006380031080319080007303106031D4E2B102618
:10064800003A03194B2B003020006A0204300319CA
:100658006902031C492B6430D6000030D7006A08B1
:10066800D3006908D2005030D4000030D50070257E
:1006780020005308D9005208D80017252000570831
:10068800EA005608E9000230772B08307C2B0A3044
:100698002000772B09303106031D842B1026003AE1
:1006A8000319842B003020006A020B3003196902F9
:1006B800031C7B2B6430D6000030D7006A08D300B7
:1006C8006908D2005F30D4000030D50070252000C2
:1006D8005308D9005208D800172520005708EA0007
:1006E8005608E9000830DE005E08B100892B0130A9
:1006F800DE005E08B100FA30E9000030EA00892B1C
:1007080001302000DE005E08B1076A08A30069080E
:10071800A20008002626003A0319A02B7703031D20
:100728009A2B7908031DBA2B0230A82B02307706C2
:100738000319BA2B0130B22B03307706031DAD2BFA
:100748007908031DBA2B04302000D2005208F700A4
:10075800BA2B043077060319BA2B03302000D200D5
:100768005208F7001430D2005208F9001F26003A48
:100778000319CC2B7603031DC62B7808031DE62B23
:100788000230D42B023076060319E62B0130DE2B1B
:1007980003307606031DD92B7808031DE62B043099
:1007A8002000D2005208F600E62B04307606031922
:1007B800E62B03302000D2005208F6001430D20095
:1007C8005208F8001026003A0319F52B20004E08AD
:1007D800031DF22B0130D2005208B100CE01CE0A1F
:1007E800F72B2000CE010826003A0319442C2000DC
:1007F8004D08031D412C0130D2005208B0001026CC
:10080800003A0319382CFA302000D2000030D30007
:100818000030D4000030D5004408D2074508D33D45
:100828004608D43D4708D53D55084B02031D262CE4
:1008380054084A02031D262C53084902031D262C7E
:10084800520848020318372C0130D2005208CC074E
:1008580004304C06031D382CB001B1010130D20020
:100868005208B200382CCC0120004B08C7004A08B7
:10087800C6004908C5004808C400CD01CD0A462C69
:100888002000CD01F401F40A2626003A031D512C5C
:100898001F26003A031D512CF40174080800CC30BF
:1008A80021008C0020008C010130F000510A5D2CE1
:1008B800F035890B5C2C7008F1007108F2007208A1
:1008C80050050319752C5108A83E860087010108B8
:1008D80021008C0020005108A03E860087010108F5
:1008E8008C000130F0007008D10708305106031D54
:1008F80008000130C8070030C93D0030CA3D00304B
:10090800CB3DF201083072020318A42C7235203E48
:10091800860087011600010403199C2C7235203EBD
:10092800860087010130810241310030813B7F31EF
:100938000130F0007008F20708307202031C8A2C9C
:100948002000D10179080319AB2C0130F90278088D
:100958000319B02C0130F8024F08031908000130C0
:10096800CF02080056265330F4000430F50039262B
:100978008B170B172000E001C621AA22392020007E
:10098800E001E101083061020318DB2C6108303E08
:100998008600870101080319D32CE001E00A013021
:1009A800DF005F08E10708306102031CCA2C6008F9
:1009B800031DE32C7808031979080319EE2C4B085A
:1009C800031DEE2CE13048029330493B04304A3B8A
:1009D800031C152D5F261A302000DF00F830890B24
:1009E800F32CDF0BF32C000064302000DF005F08DD
:1009F800CF0020004F080319052D8E23003A031954
:100A0800FD2C20004F08031D152D230097146300AB
:100A180000302000CB000030CA000030C900003090
:100A2800C8008E23C02C2000DB01DC0156085704C7
:100A38000319472DDD01DD0AD71B2C2D0130D635D2
:100A4800D70D890B232D0130DA005A08DD07202D38
:100A58000130DB35DC0D890B2D2D57085902031D9C
:100A6800372D56085802031C3E2D5608D802570841
:100A7800D93B5B140130D736D60C890B3F2D01309A
:100A8800DD02031D2C2D5C08D7005B08D60008008A
:100A980022008C013F3021008C00133023008C0091
:100AA8000C3024008C002100951325008C012200B5
:100AB8009D01270013119311121592151115911507
:100AC8006330F4000630F50045266230F400063045
:100AD800F5003F268B150800F401F5012000521C93
:100AE800792D5408F4075508F53D0130D435D50D56
:100AF800890B7A2D0130D336D20C890B7F2D520801
:100B08005304031D722D7508D3007408D200080021
:100B180001340234103420342034013410340234C7
:100B2800FC34FC34CF34CF34DE34DE34ED34ED34F1
:100B380021001508C039113895008730200095002C
:100B48008730F4007408E8000B118B1608002000A9
:100B5800640865040319B52D65088A0064080A004D
:100B680085312700931108002000660867040319DF
:100B7800C22D67088A0066080A008531270013110C
:100B88000800CC29D129DA29E329EC29F529FE29FD
:100B9800072A102A192A222AB02AB52ABE2AC72AC1
:100BA800D02AD92AE22AEB2AF42AFD2A062B200089
:100BB800620863040319080063088A0062080A00CF
:100BC80085310800D52842285328642875288628A6
:100BD8009728A828B9282700131DF32DB825270022
:100BE800931D0800AB250800F50020005008750487
:100BF800F4007408D0000800F500750920005005BD
:100C0800F4007408D000080002307606031D0E2E8A
:100C1800013008000030080002307706031D162E48
:100C28000130080000300800783021009900980150
:100C3800220096010800031020008C1D03140030C8
:100C4800093D0800031020000C1D03140030093D65
:100C58000800FE0012001E00FE0B2E2E0034640059
:100C680080010131890B342E003475082000E3001F
:100C78007408E200080075082000E5007408E40024
:100C8800080075082000E7007408E60008000B114A
:100C9800200068089500DB250800FA340034FA348F
:100CA800003401344C2518265B269C250800163094
:100CB8002100970008002000D00108000800080063
:020000040001F9
:08000000FF3FFF3FFF3FFF3F00
:04000E00A4F9FFDE74
:00000001FF
